S00C00004C6162342E73726563D5
S11300000C9434000C943E000C943E000C943E007E
S11300100C943E000C943E000C943E000C943E0064
S11300200C943E000C943E000C943E000C943E0054
S11300300C943E000C943E000C943E000C943E0044
S11300400C943E000C943E000C943E000C943E0034
S11300500C943E000C943E000C943E000C943E0024
S11300600C943E000C943E0011241FBECFEFD8E048
S1130070DEBFCDBF0E9468000C94E3010C94000025
S113008082E480937C0084E880937A000895ECE70E
S1130090F0E09081907F892B8083EAE7F0E0808113
S11300A08064808380917A0086FDFCCF8091780003
S11300B09091790008959C01A8E8B3E10E94D401CD
S11300C02FEF33E040E050E00E94B201C9010895EF
S11300D0CF93DF93CDB7DEB7C05AD1090FB6F894EA
S11300E0DEBF0FBECDBF0E9440008CE090E00E94B6
S11300F0FE00E12CF12C1CC080E00E944700870127
S1130100000F111FE1E0F0E0EC0FFD1FE00FF11F05
S11301109183808381E00E944700E1E5F0E0EC0FE9
S1130120FD1FE00FF11F918380832FEFE21AF20A83
S113013088E2E816F10404F3E12CF12C2EC08701C7
S1130140000F111FE1E0F0E0EC0FFD1FE00FF11FC5
S1130150808191810E945B006C01E1E5F0E0EC0F8D
S1130160FD1FE00FF11F808191810E945B008C01D3
S1130170C6010E9410018CE20E94090180E20E94E3
S11301800901C8010E9410018DE00E9409018AE062
S11301900E9409019FEFE91AF90A28E2E216F10424
S11301A074F2E12CF12C25C080E00E944700870105
S11301B0000F111FE1E0F0E0EC0FFD1FE00FF11F55
S11301C09183808381E00E944700E1E5F0E0EC0F39
S11301D0FD1FE00FF11F918380838FE79AE126E0F2
S11301E0815090402040E1F700C000008FEFE81AF2
S11301F0F80A98E2E916F104BCF27BCF9093C500AB
S11302008093C40088E08093C10086E08093C2009C
S113021008959091C00095FFFCCF8093C600089587
S1130220EF92FF920F931F93CF93DF938C019C0166
S1130230369527953695279536952795A5ECB0E202
S11302400E94D401AC01529542954F7045275F70CE
S113025045279A01ADECBCEC0E94D401FC01F69553
S1130260E795F695E795F695E795CF01880F991FE1
S1130270EE0FFF1FEE0FFF1FEE0FFF1FE80FF91F1A
S1130280CA018E1B9F0BFC01980136952795369564
S11302902795ABE7B4E10E94D401AC01569547958C
S11302A09A01ADECBCEC0E94D4017C01F694E79475
S11302B0F694E794F694E794C701880F991FEE0C1F
S11302C0FF1CEE0CFF1CEE0CFF1CE80EF91ECA010D
S11302D08E199F097C0198010E94D401AC015695A6
S11302E0479556954795569547959A010E94D4018E
S11302F0EC01D695C795D695C795D695C795CE01E9
S1130300880F991FCC0FDD1FCC0FDD1FCC0FDD1F15
S1130310C80FD91FCA018C1B9D0BEC01CA01880FA1
S1130320991F440F551F440F551F440F551F480F65
S1130330591F041B150B80E38E0F0E94090180E3F3
S11303408E0D0E9409018C2F805D0E94090180E3BB
S1130350800F0E940901DF91CF911F910F91FF90AF
S1130360EF900895A1E21A2EAA1BBB1BFD010DC03C
S1130370AA1FBB1FEE1FFF1FA217B307E407F50751
S113038020F0A21BB30BE40BF50B661F771F881F2D
S1130390991F1A9469F760957095809590959B01C3
S11303A0AC01BD01CF010895A29FB001B39FC0016C
S11303B0A39F700D811D1124911DB29F700D811D8D
S10D03C01124911D0895F894FFCF55
S9030000FC
