:100000000C9434000C943E000C943E000C943E0082
:100010000C943E000C943E000C943E000C943E0068
:100020000C943E000C943E000C943E000C943E0058
:100030000C943E000C943E000C943E000C943E0048
:100040000C943E000C943E000C943E000C943E0038
:100050000C943E000C943E000C943E000C943E0028
:100060000C943E000C943E0011241FBECFEFD8E04C
:10007000DEBFCDBF0E9445000C945F000C940000D1
:1000800095B180E2892785B90895259A0E944F008D
:100090000E9456008823E1F30E944000F9CF82E0DD
:1000A00084BD84E085BD8DE487BD089595B3892F17
:1000B000827091FF03C082E085BB81E00895F894CF
:0200C000FFCF70
:00000001FF
