:100000000C9434000C9446000C9446000C9446006A
:100010000C9446000C9446000C9446000C94460048
:100020000C9446000C9446000C9446000C94460038
:100030000C9446000C9446000C945E000C94460010
:100040000C9446000C9446000C9446000C94460018
:100050000C9446000C9446000C9446000C94460008
:100060000C9446000C94460011241FBECFEFD8E03C
:10007000DEBFCDBF21E0A0E0B1E001C01D92A13004
:10008000B207E1F70E944D000C948B000C94000025
:1000900095B180E2892785B90895259A0E9452007A
:1000A0007894FFCF82E084BD84E085BD8DE487BD78
:1000B000EEE6F0E080818260808308951F920F92C7
:1000C0000FB60F9211242F933F934F935F936F932B
:1000D0007F938F939F93AF93BF93EF93FF93809101
:1000E00000018F5F809300018A3021F40E94480054
:1000F00010920001FF91EF91BF91AF919F918F916D
:100100007F916F915F914F913F912F910F900FBE13
:0A0110000F901F901895F894FFCF90
:00000001FF
