S00C00004C6162352E73726563D4
S11300000C9434000C943E000C943E000C943E007E
S11300100C943E000C943E000C943E000C943E0064
S11300200C943E000C943E000C943E000C943E0054
S11300300C943E000C943E000C943E000C943E0044
S11300400C943E000C943E000C943E000C943E0034
S11300500C943E000C943E000C943E000C943E0024
S11300600C943E000C943E0011241FBECFEFD8E048
S1130070DEBFCDBF0E9440000C946B010C940000C5
S11300800E9489008CE090E00E948D000F2EF0E425
S1130090CF2EF2E4DF2EFFE0EF2EF12CF02D4A9963
S11300A0FECF4A9BFECF16BC4A99FECF4A9BFECF99
S11300B026B5822F90E0A0E0B0E0880F991FAA1F18
S11300C0BB1F880F991FAA1FBB1F880F991FAA1F48
S11300D0BB1F880F991FAA1FBB1F880F991FAA1F38
S11300E0BB1F880F991FAA1FBB1F9C01AD01220FC4
S11300F0331F441F551FC701B6010E943A01C901AD
S11301000E94A0008DE00E9498008AE00E9498005E
S1130110C6CF14BC84E085BD08959093C500809338
S1130120C40088E08093C10086E08093C2000895F3
S1130130E0ECF0E0908195FFFDCF8093C600089538
S11301400F931F93CF93DF938C019C0136952795D2
S11301503695279536952795A5ECB0E20E945C016B
S1130160AC01529542954F7045275F7045279A011F
S1130170ADECBCEC0E945C019695879596958795AD
S1130180969587959C01220F331F880F991F880F1E
S1130190991F880F991F820F931F9A01281B390BEF
S11301A0C901805D0E94980098013695279536957F
S11301B02795ABE7B4E10E945C01AC0156954795E5
S11301C09A01ADECBCEC0E945C01969587959695DE
S11301D08795969587959C01220F331F880F991F49
S11301E0880F991F880F991F820F931F9A01281B4C
S11301F0390BC901805D0E9498009801ADECBCECFC
S11302000E945C01EC01D695C795D695C795D69505
S1130210C7959E010E945C01969587959695879552
S1130220969587959C01220F331F880F991F880F7D
S1130230991F880F991F820F931F9E01281B390B4A
S1130240C901805D0E949800CE01880F991FCC0FD0
S1130250DD1FCC0FDD1FCC0FDD1FC80FD91FC80158
S11302608C1B9D0B805D0E949800DF91CF911F91A4
S11302700F910895A1E21A2EAA1BBB1BFD010DC00C
S1130280AA1FBB1FEE1FFF1FA217B307E407F50742
S113029020F0A21BB30BE40BF50B661F771F881F1E
S11302A0991F1A9469F760957095809590959B01B4
S11302B0AC01BD01CF010895A29FB001B39FC0015D
S11302C0A39F700D811D1124911DB29F700D811D7E
S10D02D01124911D0895F894FFCF46
S9030000FC
