:100000000C9434000C943E000C943E000C943E0082
:100010000C943E000C943E000C943E000C943E0068
:100020000C943E000C943E000C943E000C943E0058
:100030000C943E000C943E000C943E000C943E0048
:100040000C943E000C943E000C943E000C943E0038
:100050000C943E000C943E000C943E000C943E0028
:100060000C943E000C943E0011241FBECFEFD8E04C
:10007000DEBFCDBF0E9440000C94BF000C94000076
:10008000CF93DF93CDB7DEB7C05DD1090FB6F8943B
:10009000DEBF0FBECDBF1A82198282E090E09C8342
:1000A0008B833EC01E821D8282E090E098878F8302
:1000B00013C08B819C812F813885B9010E949700E4
:1000C000892B29F481E090E09E838D830CC08F8181
:1000D0009885019698878F832F8138858B819C81A5
:1000E0002817390734F38D819E81892BA1F48981EA
:1000F0009A81880F991F9E012F5F3F4F820F931F98
:1001000008962B813C81FC013183208389819A816F
:1001100001969A8389838B819C8101969C838B8332
:100120008B819C818D3291400CF4BCCFFFCF97FB2B
:10013000072E16F4009407D077FD09D00E94AB007B
:1001400007FC05D03EF4909581959F4F08957095DA
:1001500061957F4F0895AA1BBB1B51E107C0AA1FE1
:10016000BB1FA617B70710F0A61BB70B881F991F58
:100170005A95A9F780959095BC01CD010895F89402
:02018000FFCFAF
:00000001FF
