S00C00004C6162362E73726563D3
S11300000C9434000C9451000C9451000C94510045
S11300100C9451000C9451000C9451000C94510018
S11300200C9451000C9451000C9451000C94510008
S11300300C9451000C9451000C948E000C945100BB
S11300400C9451000C9451000C9451000C945100E8
S11300500C9451000C9451000C9451000C945100D8
S11300600C9451000C94510011241FBECFEFD8E022
S1130070DEBFCDBF11E0A0E0B1E0ECEEF1E002C0E4
S113008005900D92AA30B107D9F721E0AAE0B1E0BA
S113009001C01D92AC30B207E1F70E94E2000C945B
S11300A0F4000C94000082E084BD95E095BD9EE4CC
S11300B097BD80936E000895E82FF0E0E050FF4F65
S11300C0808198B1907C282F2F73922B98B925B1F9
S11300D0807490E09595879595958795922F9F7E4E
S11300E0892B85B9089584B1836184B987B18F63FD
S11300F087B985B18E7F85B985B18D7F85B90E9419
S11301005300089580910B018F5F80930B018091C0
S11301100B01843610F010920B0108951F920F9278
S11301200FB60F9211242F933F934F935F936F93C6
S11301307F938F939F93AF93BF93EF93FF9380919C
S11301400B019DEC899F812D1124869586958695BA
S113015030910B01399F912D112496959695969582
S1130160990F292F220F220F920F391B20910A0178
S1130170222361F085B1836085B9832F0E945C00DE
S113018085B18D7F85B910920A010BC095B193603A
S113019095B90E945C0085B18E7F85B981E080931A
S11301A00A01FF91EF91BF91AF919F918F917F9140
S11301B06F915F914F913F912F910F900FBE0F90D0
S11301C01F90189584B18F7784B90E947300789436
S11301D02FE78AE196E0215080409040E1F700C08B
S10F01E000000E948200F4CFF894FFCFCE
S10D01EC3F065B4F666D7D077F6FD1
S9030000FC
