:100000000C9434000C9451000C9451000C94510049
:100010000C9451000C9451000C9451000C9451001C
:100020000C9451000C9451000C9451000C9451000C
:100030000C9451000C9451000C9484010C945100C8
:100040000C9451000C9451000C9451000C945100EC
:100050000C9451000C9451000C9451000C945100DC
:100060000C9451000C94510011241FBECFEFD8E026
:10007000DEBFCDBF11E0A0E0B1E0E4EDF3E002C0EF
:1000800005900D92AA30B107D9F721E0AAE0B1E0BE
:1000900001C01D92A131B207E1F70E94A8010C94A2
:1000A000E8010C94000087B1886387B98AB1806F3A
:1000B0008AB988B1877D88B98BB1806F8BB9089573
:1000C000CF92DF92EF92FF921F93CF93DF937C0149
:1000D000162F9C01ADECBCEC0E94D901AC015695E9
:1000E00047955695479556954795CA01880F991F8C
:1000F000440F551F440F551F440F551F480F591FDC
:10010000241B350BA90197010E94D901EC01D6955A
:10011000C795D695C795D695C7959E010E94D901DA
:10012000FC01F695E795F695E795F695E795CF01ED
:10013000880F991FEE0FFF1FEE0FFF1FEE0FFF1F1F
:10014000E80FF91FCE018E1B9F0BFC01970136951E
:10015000279536952795ABE7B4E10E94D9016C014C
:10016000D694C7949601ADECBCEC0E94D901EC0189
:10017000D695C795D695C795D695C795CE01880FC4
:10018000991FCC0FDD1FCC0FDD1FCC0FDD1FC80F5B
:10019000D91F2C1B3D0BE901970136952795369504
:1001A000279536952795A5ECB0E20E94D9017C01F0
:1001B000F694E794F694E794F694E794F694E7942B
:1001C0009701ADECBCEC0E94D90196958795969568
:1001D0008795969587959C01220F331F880F991F4D
:1001E000880F991F880F991F820F931F9701281B53
:1001F000390BC9019927DC01A050BF4F8C91ABE0AE
:10020000B1E08C93DD27C050DF4F888111968C932D
:100210001197FF27E050FF4F808112968C93129721
:100220005527FA01E050FF4F808113968C931430CC
:1002300038F4E12FF0E0E55FFE4F80818068808335
:10024000DF91CF911F91FF90EF90DF90CF900895B5
:10025000E0910A01F0E0E55FFE4F408188B1877FC1
:1002600088B987E018C0242F30E0082E02C03595E9
:1002700027950A94E2F720FF04C098B1906198B9DD
:1002800003C098B19F7E98B998B1986098B998B119
:10029000977F98B98150882334F78BB1806F8BB9E1
:1002A00088B1806288B988B18F7D88B980910A0150
:1002B000813051F028F0823059F0833069F00FC05E
:1002C0008BB18F7E8BB90BC08BB18F7D8BB907C083
:1002D0008BB18F7B8BB903C08BB18F778BB980913A
:1002E0000A018F5F80930A0180910A01843010F027
:1002F00010920A01089582E084BD94E095BD9EE4C9
:1003000097BD80936E0008951F920F920FB60F92C3
:1003100011242F933F934F935F936F937F938F930A
:100320009F93AF93BF93EF93FF930E942801FF9198
:10033000EF91BF91AF919F918F917F916F915F915D
:100340004F913F912F910F900FBE0F901F901895D6
:100350000E9453000E947B01789480910F0190913C
:10036000100164E00E9460002FEF80E792E02150CE
:1003700080409040E1F700C0000080910F01909113
:10038000100101969093100180930F0180910F014D
:10039000909110018031974220F01092100110923C
:1003A0000F0180910F019091100164E00E946000A4
:1003B000DBCFA29FB001B39FC001A39F700D811D31
:1003C0001124911DB29F700D811D1124911D08955E
:0403D000F894FFCFCF
:0A03D4003F065B4F666D7D077F6FEB
:00000001FF
