S00C00004C6162362E73726563D3
S11300000C9434000C9449000C9449000C9449005D
S11300100C9449000C9449000C9449000C94490038
S11300200C9449000C9449000C9449000C94490028
S11300300C9449000C9449000C9449000C94490018
S11300400C9449000C9449000C9449000C94490008
S11300500C9449000C9449000C9449000C944900F8
S11300600C9449000C94490011241FBECFEFD8E032
S1130070DEBFCDBF11E0A0E0B1E0E0E2F1E002C0FC
S113008005900D92AA30B107D9F70E9462000C9432
S11300908E000C940000E82FF0E0E050FF4F8081C8
S11300A098B1907C282F2F73922B98B925B1807426
S11300B090E09595879595958795922F9F7E892BAE
S11300C085B9089584B18F7784B984B1836184B983
S11300D087B18F6387B985B1816085B985B18D7F1B
S11300E085B980E00E944B00D0E0C0E00DC01F99AC
S11300F004C080E00E944B00D0E08FE493EC0197B1
S1130100F1F700C00000CF5FCA3088F3DF5FDA3058
S113011008F0D0E08D2F0E944B00E7CFF894FFCF7A
S10D01203F065B4F666D7D077F6F9D
S9030000FC
